{"contracts/Assessment.sol":{"Assessment":{"abi":[{"inputs":[{"internalType":"uint256","name":"initBalance","type":"uint256"}],"stateMutability":"payable","type":"constructor"},{"inputs":[{"internalType":"uint256","name":"balance","type":"uint256"},{"internalType":"uint256","name":"withdrawAmount","type":"uint256"}],"name":"InsufficientBalance","type":"error"},{"anonymous":false,"inputs":[{"indexed":false,"internalType":"uint256","name":"amount","type":"uint256"}],"name":"Deposit","type":"event"},{"anonymous":false,"inputs":[{"indexed":false,"internalType":"uint256","name":"amount","type":"uint256"}],"name":"Withdraw","type":"event"},{"inputs":[],"name":"balance","outputs":[{"internalType":"uint256","name":"","type":"uint256"}],"stateMutability":"view","type":"function"},{"inputs":[],"name":"connectAccount","outputs":[],"stateMutability":"nonpayable","type":"function"},{"inputs":[{"internalType":"uint256","name":"_amount","type":"uint256"}],"name":"deposit","outputs":[],"stateMutability":"payable","type":"function"},{"inputs":[],"name":"disconnectAccount","outputs":[],"stateMutability":"nonpayable","type":"function"},{"inputs":[],"name":"getBalance","outputs":[{"internalType":"uint256","name":"","type":"uint256"}],"stateMutability":"view","type":"function"},{"inputs":[],"name":"getNumConnectedAccounts","outputs":[{"internalType":"uint256","name":"","type":"uint256"}],"stateMutability":"view","type":"function"},{"inputs":[],"name":"numAccounts","outputs":[{"internalType":"uint256","name":"","type":"uint256"}],"stateMutability":"view","type":"function"},{"inputs":[],"name":"owner","outputs":[{"internalType":"address payable","name":"","type":"address"}],"stateMutability":"view","type":"function"},{"inputs":[{"internalType":"uint256","name":"_withdrawAmount","type":"uint256"}],"name":"withdraw","outputs":[],"stateMutability":"nonpayable","type":"function"}],"evm":{"bytecode":{"linkReferences":{},"object":"60806040526040516107b73803806107b7833981810160405281019061002591906100ad565b336000806101000a81548173ffffffffffffffffffffffffffffffffffffffff021916908373ffffffffffffffffffffffffffffffffffffffff16021790555080600181905550506100da565b600080fd5b6000819050919050565b61008a81610077565b811461009557600080fd5b50565b6000815190506100a781610081565b92915050565b6000602082840312156100c3576100c2610072565b5b60006100d184828501610098565b91505092915050565b6106ce806100e96000396000f3fe6080604052600436106100865760003560e01c80638da5cb5b116100595780638da5cb5b146101215780639938c3491461014c578063b69ef8a814610177578063b6b55f25146101a2578063f57e2a6c146101be57610086565b806312065fe01461008b5780632e1a7d4d146100b65780636245d5e6146100df5780638ce25a93146100f6575b600080fd5b34801561009757600080fd5b506100a06101d5565b6040516100ad91906103e6565b60405180910390f35b3480156100c257600080fd5b506100dd60048036038101906100d89190610432565b6101df565b005b3480156100eb57600080fd5b506100f46102a2565b005b34801561010257600080fd5b5061010b610301565b60405161011891906103e6565b60405180910390f35b34801561012d57600080fd5b50610136610307565b60405161014391906104a0565b60405180910390f35b34801561015857600080fd5b5061016161032b565b60405161016e91906103e6565b60405180910390f35b34801561018357600080fd5b5061018c610335565b60405161019991906103e6565b60405180910390f35b6101bc60048036038101906101b79190610432565b61033b565b005b3480156101ca57600080fd5b506101d36103b3565b005b6000600154905090565b6000600154905081600154101561023157600154826040517fcf4791810000000000000000000000000000000000000000000000000000000081526004016102289291906104bb565b60405180910390fd5b81600160008282546102439190610513565b9250508190555081816102569190610513565b6001541461026757610266610547565b5b7f5b6b431d4476a211bb7d41c20d1aab9ae2321deee0d20be3d9fc9b1093fa6e3d8260405161029691906103e6565b60405180910390a15050565b6000600254116102e7576040517f08c379a00000000000000000000000000000000000000000000000000000000081526004016102de906105d3565b60405180910390fd5b600260008154809291906102fa906105f3565b9190505550565b60025481565b60008054906101000a900473ffffffffffffffffffffffffffffffffffffffff1681565b6000600254905090565b60015481565b600060015490508160016000828254610354919061061c565b925050819055508181610367919061061c565b6001541461037857610377610547565b5b7f4d6ce1e535dbade1c23defba91e23b8f791ce5edc0cc320257a2b364e4e38426826040516103a791906103e6565b60405180910390a15050565b600260008154809291906103c690610650565b9190505550565b6000819050919050565b6103e0816103cd565b82525050565b60006020820190506103fb60008301846103d7565b92915050565b600080fd5b61040f816103cd565b811461041a57600080fd5b50565b60008135905061042c81610406565b92915050565b60006020828403121561044857610447610401565b5b60006104568482850161041d565b91505092915050565b600073ffffffffffffffffffffffffffffffffffffffff82169050919050565b600061048a8261045f565b9050919050565b61049a8161047f565b82525050565b60006020820190506104b56000830184610491565b92915050565b60006040820190506104d060008301856103d7565b6104dd60208301846103d7565b9392505050565b7f4e487b7100000000000000000000000000000000000000000000000000000000600052601160045260246000fd5b600061051e826103cd565b9150610529836103cd565b9250828203905081811115610541576105406104e4565b5b92915050565b7f4e487b7100000000000000000000000000000000000000000000000000000000600052600160045260246000fd5b600082825260208201905092915050565b7f4e6f206163636f756e747320746f20646973636f6e6e65637400000000000000600082015250565b60006105bd601983610576565b91506105c882610587565b602082019050919050565b600060208201905081810360008301526105ec816105b0565b9050919050565b60006105fe826103cd565b915060008203610611576106106104e4565b5b600182039050919050565b6000610627826103cd565b9150610632836103cd565b925082820190508082111561064a576106496104e4565b5b92915050565b600061065b826103cd565b91507fffffffffffffffffffffffffffffffffffffffffffffffffffffffffffffffff820361068d5761068c6104e4565b5b60018201905091905056fea26469706673582212205997838d832a970007a48e70564cadba47e4e1dc9fc8115b8d2927c37e38b35a64736f6c63430008110033","opcodes":"PUSH1 0x80 PUSH1 0x40 MSTORE PUSH1 0x40 MLOAD PUSH2 0x7B7 CODESIZE SUB DUP1 PUSH2 0x7B7 DUP4 CODECOPY DUP2 DUP2 ADD PUSH1 0x40 MSTORE DUP2 ADD SWAP1 PUSH2 0x25 SWAP2 SWAP1 PUSH2 0xAD JUMP JUMPDEST CALLER PUSH1 0x0 DUP1 PUSH2 0x100 EXP DUP2 SLOAD DUP2 PUSH20 0xFFFFFFFFFFFFFFFFFFFFFFFFFFFFFFFFFFFFFFFF MUL NOT AND SWAP1 DUP4 PUSH20 0xFFFFFFFFFFFFFFFFFFFFFFFFFFFFFFFFFFFFFFFF AND MUL OR SWAP1 SSTORE POP DUP1 PUSH1 0x1 DUP2 SWAP1 SSTORE POP POP PUSH2 0xDA JUMP JUMPDEST PUSH1 0x0 DUP1 REVERT JUMPDEST PUSH1 0x0 DUP2 SWAP1 POP SWAP2 SWAP1 POP JUMP JUMPDEST PUSH2 0x8A DUP2 PUSH2 0x77 JUMP JUMPDEST DUP2 EQ PUSH2 0x95 JUMPI PUSH1 0x0 DUP1 REVERT JUMPDEST POP JUMP JUMPDEST PUSH1 0x0 DUP2 MLOAD SWAP1 POP PUSH2 0xA7 DUP2 PUSH2 0x81 JUMP JUMPDEST SWAP3 SWAP2 POP POP JUMP JUMPDEST PUSH1 0x0 PUSH1 0x20 DUP3 DUP5 SUB SLT ISZERO PUSH2 0xC3 JUMPI PUSH2 0xC2 PUSH2 0x72 JUMP JUMPDEST JUMPDEST PUSH1 0x0 PUSH2 0xD1 DUP5 DUP3 DUP6 ADD PUSH2 0x98 JUMP JUMPDEST SWAP2 POP POP SWAP3 SWAP2 POP POP JUMP JUMPDEST PUSH2 0x6CE DUP1 PUSH2 0xE9 PUSH1 0x0 CODECOPY PUSH1 0x0 RETURN INVALID PUSH1 0x80 PUSH1 0x40 MSTORE PUSH1 0x4 CALLDATASIZE LT PUSH2 0x86 JUMPI PUSH1 0x0 CALLDATALOAD PUSH1 0xE0 SHR DUP1 PUSH4 0x8DA5CB5B GT PUSH2 0x59 JUMPI DUP1 PUSH4 0x8DA5CB5B EQ PUSH2 0x121 JUMPI DUP1 PUSH4 0x9938C349 EQ PUSH2 0x14C JUMPI DUP1 PUSH4 0xB69EF8A8 EQ PUSH2 0x177 JUMPI DUP1 PUSH4 0xB6B55F25 EQ PUSH2 0x1A2 JUMPI DUP1 PUSH4 0xF57E2A6C EQ PUSH2 0x1BE JUMPI PUSH2 0x86 JUMP JUMPDEST DUP1 PUSH4 0x12065FE0 EQ PUSH2 0x8B JUMPI DUP1 PUSH4 0x2E1A7D4D EQ PUSH2 0xB6 JUMPI DUP1 PUSH4 0x6245D5E6 EQ PUSH2 0xDF JUMPI DUP1 PUSH4 0x8CE25A93 EQ PUSH2 0xF6 JUMPI JUMPDEST PUSH1 0x0 DUP1 REVERT JUMPDEST CALLVALUE DUP1 ISZERO PUSH2 0x97 JUMPI PUSH1 0x0 DUP1 REVERT JUMPDEST POP PUSH2 0xA0 PUSH2 0x1D5 JUMP JUMPDEST PUSH1 0x40 MLOAD PUSH2 0xAD SWAP2 SWAP1 PUSH2 0x3E6 JUMP JUMPDEST PUSH1 0x40 MLOAD DUP1 SWAP2 SUB SWAP1 RETURN JUMPDEST CALLVALUE DUP1 ISZERO PUSH2 0xC2 JUMPI PUSH1 0x0 DUP1 REVERT JUMPDEST POP PUSH2 0xDD PUSH1 0x4 DUP1 CALLDATASIZE SUB DUP2 ADD SWAP1 PUSH2 0xD8 SWAP2 SWAP1 PUSH2 0x432 JUMP JUMPDEST PUSH2 0x1DF JUMP JUMPDEST STOP JUMPDEST CALLVALUE DUP1 ISZERO PUSH2 0xEB JUMPI PUSH1 0x0 DUP1 REVERT JUMPDEST POP PUSH2 0xF4 PUSH2 0x2A2 JUMP JUMPDEST STOP JUMPDEST CALLVALUE DUP1 ISZERO PUSH2 0x102 JUMPI PUSH1 0x0 DUP1 REVERT JUMPDEST POP PUSH2 0x10B PUSH2 0x301 JUMP JUMPDEST PUSH1 0x40 MLOAD PUSH2 0x118 SWAP2 SWAP1 PUSH2 0x3E6 JUMP JUMPDEST PUSH1 0x40 MLOAD DUP1 SWAP2 SUB SWAP1 RETURN JUMPDEST CALLVALUE DUP1 ISZERO PUSH2 0x12D JUMPI PUSH1 0x0 DUP1 REVERT JUMPDEST POP PUSH2 0x136 PUSH2 0x307 JUMP JUMPDEST PUSH1 0x40 MLOAD PUSH2 0x143 SWAP2 SWAP1 PUSH2 0x4A0 JUMP JUMPDEST PUSH1 0x40 MLOAD DUP1 SWAP2 SUB SWAP1 RETURN JUMPDEST CALLVALUE DUP1 ISZERO PUSH2 0x158 JUMPI PUSH1 0x0 DUP1 REVERT JUMPDEST POP PUSH2 0x161 PUSH2 0x32B JUMP JUMPDEST PUSH1 0x40 MLOAD PUSH2 0x16E SWAP2 SWAP1 PUSH2 0x3E6 JUMP JUMPDEST PUSH1 0x40 MLOAD DUP1 SWAP2 SUB SWAP1 RETURN JUMPDEST CALLVALUE DUP1 ISZERO PUSH2 0x183 JUMPI PUSH1 0x0 DUP1 REVERT JUMPDEST POP PUSH2 0x18C PUSH2 0x335 JUMP JUMPDEST PUSH1 0x40 MLOAD PUSH2 0x199 SWAP2 SWAP1 PUSH2 0x3E6 JUMP JUMPDEST PUSH1 0x40 MLOAD DUP1 SWAP2 SUB SWAP1 RETURN JUMPDEST PUSH2 0x1BC PUSH1 0x4 DUP1 CALLDATASIZE SUB DUP2 ADD SWAP1 PUSH2 0x1B7 SWAP2 SWAP1 PUSH2 0x432 JUMP JUMPDEST PUSH2 0x33B JUMP JUMPDEST STOP JUMPDEST CALLVALUE DUP1 ISZERO PUSH2 0x1CA JUMPI PUSH1 0x0 DUP1 REVERT JUMPDEST POP PUSH2 0x1D3 PUSH2 0x3B3 JUMP JUMPDEST STOP JUMPDEST PUSH1 0x0 PUSH1 0x1 SLOAD SWAP1 POP SWAP1 JUMP JUMPDEST PUSH1 0x0 PUSH1 0x1 SLOAD SWAP1 POP DUP2 PUSH1 0x1 SLOAD LT ISZERO PUSH2 0x231 JUMPI PUSH1 0x1 SLOAD DUP3 PUSH1 0x40 MLOAD PUSH32 0xCF47918100000000000000000000000000000000000000000000000000000000 DUP2 MSTORE PUSH1 0x4 ADD PUSH2 0x228 SWAP3 SWAP2 SWAP1 PUSH2 0x4BB JUMP JUMPDEST PUSH1 0x40 MLOAD DUP1 SWAP2 SUB SWAP1 REVERT JUMPDEST DUP2 PUSH1 0x1 PUSH1 0x0 DUP3 DUP3 SLOAD PUSH2 0x243 SWAP2 SWAP1 PUSH2 0x513 JUMP JUMPDEST SWAP3 POP POP DUP2 SWAP1 SSTORE POP DUP2 DUP2 PUSH2 0x256 SWAP2 SWAP1 PUSH2 0x513 JUMP JUMPDEST PUSH1 0x1 SLOAD EQ PUSH2 0x267 JUMPI PUSH2 0x266 PUSH2 0x547 JUMP JUMPDEST JUMPDEST PUSH32 0x5B6B431D4476A211BB7D41C20D1AAB9AE2321DEEE0D20BE3D9FC9B1093FA6E3D DUP3 PUSH1 0x40 MLOAD PUSH2 0x296 SWAP2 SWAP1 PUSH2 0x3E6 JUMP JUMPDEST PUSH1 0x40 MLOAD DUP1 SWAP2 SUB SWAP1 LOG1 POP POP JUMP JUMPDEST PUSH1 0x0 PUSH1 0x2 SLOAD GT PUSH2 0x2E7 JUMPI PUSH1 0x40 MLOAD PUSH32 0x8C379A000000000000000000000000000000000000000000000000000000000 DUP2 MSTORE PUSH1 0x4 ADD PUSH2 0x2DE SWAP1 PUSH2 0x5D3 JUMP JUMPDEST PUSH1 0x40 MLOAD DUP1 SWAP2 SUB SWAP1 REVERT JUMPDEST PUSH1 0x2 PUSH1 0x0 DUP2 SLOAD DUP1 SWAP3 SWAP2 SWAP1 PUSH2 0x2FA SWAP1 PUSH2 0x5F3 JUMP JUMPDEST SWAP2 SWAP1 POP SSTORE POP JUMP JUMPDEST PUSH1 0x2 SLOAD DUP2 JUMP JUMPDEST PUSH1 0x0 DUP1 SLOAD SWAP1 PUSH2 0x100 EXP SWAP1 DIV PUSH20 0xFFFFFFFFFFFFFFFFFFFFFFFFFFFFFFFFFFFFFFFF AND DUP2 JUMP JUMPDEST PUSH1 0x0 PUSH1 0x2 SLOAD SWAP1 POP SWAP1 JUMP JUMPDEST PUSH1 0x1 SLOAD DUP2 JUMP JUMPDEST PUSH1 0x0 PUSH1 0x1 SLOAD SWAP1 POP DUP2 PUSH1 0x1 PUSH1 0x0 DUP3 DUP3 SLOAD PUSH2 0x354 SWAP2 SWAP1 PUSH2 0x61C JUMP JUMPDEST SWAP3 POP POP DUP2 SWAP1 SSTORE POP DUP2 DUP2 PUSH2 0x367 SWAP2 SWAP1 PUSH2 0x61C JUMP JUMPDEST PUSH1 0x1 SLOAD EQ PUSH2 0x378 JUMPI PUSH2 0x377 PUSH2 0x547 JUMP JUMPDEST JUMPDEST PUSH32 0x4D6CE1E535DBADE1C23DEFBA91E23B8F791CE5EDC0CC320257A2B364E4E38426 DUP3 PUSH1 0x40 MLOAD PUSH2 0x3A7 SWAP2 SWAP1 PUSH2 0x3E6 JUMP JUMPDEST PUSH1 0x40 MLOAD DUP1 SWAP2 SUB SWAP1 LOG1 POP POP JUMP JUMPDEST PUSH1 0x2 PUSH1 0x0 DUP2 SLOAD DUP1 SWAP3 SWAP2 SWAP1 PUSH2 0x3C6 SWAP1 PUSH2 0x650 JUMP JUMPDEST SWAP2 SWAP1 POP SSTORE POP JUMP JUMPDEST PUSH1 0x0 DUP2 SWAP1 POP SWAP2 SWAP1 POP JUMP JUMPDEST PUSH2 0x3E0 DUP2 PUSH2 0x3CD JUMP JUMPDEST DUP3 MSTORE POP POP JUMP JUMPDEST PUSH1 0x0 PUSH1 0x20 DUP3 ADD SWAP1 POP PUSH2 0x3FB PUSH1 0x0 DUP4 ADD DUP5 PUSH2 0x3D7 JUMP JUMPDEST SWAP3 SWAP2 POP POP JUMP JUMPDEST PUSH1 0x0 DUP1 REVERT JUMPDEST PUSH2 0x40F DUP2 PUSH2 0x3CD JUMP JUMPDEST DUP2 EQ PUSH2 0x41A JUMPI PUSH1 0x0 DUP1 REVERT JUMPDEST POP JUMP JUMPDEST PUSH1 0x0 DUP2 CALLDATALOAD SWAP1 POP PUSH2 0x42C DUP2 PUSH2 0x406 JUMP JUMPDEST SWAP3 SWAP2 POP POP JUMP JUMPDEST PUSH1 0x0 PUSH1 0x20 DUP3 DUP5 SUB SLT ISZERO PUSH2 0x448 JUMPI PUSH2 0x447 PUSH2 0x401 JUMP JUMPDEST JUMPDEST PUSH1 0x0 PUSH2 0x456 DUP5 DUP3 DUP6 ADD PUSH2 0x41D JUMP JUMPDEST SWAP2 POP POP SWAP3 SWAP2 POP POP JUMP JUMPDEST PUSH1 0x0 PUSH20 0xFFFFFFFFFFFFFFFFFFFFFFFFFFFFFFFFFFFFFFFF DUP3 AND SWAP1 POP SWAP2 SWAP1 POP JUMP JUMPDEST PUSH1 0x0 PUSH2 0x48A DUP3 PUSH2 0x45F JUMP JUMPDEST SWAP1 POP SWAP2 SWAP1 POP JUMP JUMPDEST PUSH2 0x49A DUP2 PUSH2 0x47F JUMP JUMPDEST DUP3 MSTORE POP POP JUMP JUMPDEST PUSH1 0x0 PUSH1 0x20 DUP3 ADD SWAP1 POP PUSH2 0x4B5 PUSH1 0x0 DUP4 ADD DUP5 PUSH2 0x491 JUMP JUMPDEST SWAP3 SWAP2 POP POP JUMP JUMPDEST PUSH1 0x0 PUSH1 0x40 DUP3 ADD SWAP1 POP PUSH2 0x4D0 PUSH1 0x0 DUP4 ADD DUP6 PUSH2 0x3D7 JUMP JUMPDEST PUSH2 0x4DD PUSH1 0x20 DUP4 ADD DUP5 PUSH2 0x3D7 JUMP JUMPDEST SWAP4 SWAP3 POP POP POP JUMP JUMPDEST PUSH32 0x4E487B7100000000000000000000000000000000000000000000000000000000 PUSH1 0x0 MSTORE PUSH1 0x11 PUSH1 0x4 MSTORE PUSH1 0x24 PUSH1 0x0 REVERT JUMPDEST PUSH1 0x0 PUSH2 0x51E DUP3 PUSH2 0x3CD JUMP JUMPDEST SWAP2 POP PUSH2 0x529 DUP4 PUSH2 0x3CD JUMP JUMPDEST SWAP3 POP DUP3 DUP3 SUB SWAP1 POP DUP2 DUP2 GT ISZERO PUSH2 0x541 JUMPI PUSH2 0x540 PUSH2 0x4E4 JUMP JUMPDEST JUMPDEST SWAP3 SWAP2 POP POP JUMP JUMPDEST PUSH32 0x4E487B7100000000000000000000000000000000000000000000000000000000 PUSH1 0x0 MSTORE PUSH1 0x1 PUSH1 0x4 MSTORE PUSH1 0x24 PUSH1 0x0 REVERT JUMPDEST PUSH1 0x0 DUP3 DUP3 MSTORE PUSH1 0x20 DUP3 ADD SWAP1 POP SWAP3 SWAP2 POP POP JUMP JUMPDEST PUSH32 0x4E6F206163636F756E747320746F20646973636F6E6E65637400000000000000 PUSH1 0x0 DUP3 ADD MSTORE POP JUMP JUMPDEST PUSH1 0x0 PUSH2 0x5BD PUSH1 0x19 DUP4 PUSH2 0x576 JUMP JUMPDEST SWAP2 POP PUSH2 0x5C8 DUP3 PUSH2 0x587 JUMP JUMPDEST PUSH1 0x20 DUP3 ADD SWAP1 POP SWAP2 SWAP1 POP JUMP JUMPDEST PUSH1 0x0 PUSH1 0x20 DUP3 ADD SWAP1 POP DUP2 DUP2 SUB PUSH1 0x0 DUP4 ADD MSTORE PUSH2 0x5EC DUP2 PUSH2 0x5B0 JUMP JUMPDEST SWAP1 POP SWAP2 SWAP1 POP JUMP JUMPDEST PUSH1 0x0 PUSH2 0x5FE DUP3 PUSH2 0x3CD JUMP JUMPDEST SWAP2 POP PUSH1 0x0 DUP3 SUB PUSH2 0x611 JUMPI PUSH2 0x610 PUSH2 0x4E4 JUMP JUMPDEST JUMPDEST PUSH1 0x1 DUP3 SUB SWAP1 POP SWAP2 SWAP1 POP JUMP JUMPDEST PUSH1 0x0 PUSH2 0x627 DUP3 PUSH2 0x3CD JUMP JUMPDEST SWAP2 POP PUSH2 0x632 DUP4 PUSH2 0x3CD JUMP JUMPDEST SWAP3 POP DUP3 DUP3 ADD SWAP1 POP DUP1 DUP3 GT ISZERO PUSH2 0x64A JUMPI PUSH2 0x649 PUSH2 0x4E4 JUMP JUMPDEST JUMPDEST SWAP3 SWAP2 POP POP JUMP JUMPDEST PUSH1 0x0 PUSH2 0x65B DUP3 PUSH2 0x3CD JUMP JUMPDEST SWAP2 POP PUSH32 0xFFFFFFFFFFFFFFFFFFFFFFFFFFFFFFFFFFFFFFFFFFFFFFFFFFFFFFFFFFFFFFFF DUP3 SUB PUSH2 0x68D JUMPI PUSH2 0x68C PUSH2 0x4E4 JUMP JUMPDEST JUMPDEST PUSH1 0x1 DUP3 ADD SWAP1 POP SWAP2 SWAP1 POP JUMP INVALID LOG2 PUSH5 0x6970667358 0x22 SLT KECCAK256 MSIZE SWAP8 DUP4 DUP14 DUP4 0x2A SWAP8 STOP SMOD LOG4 DUP15 PUSH17 0x564CADBA47E4E1DC9FC8115B8D2927C37E CODESIZE 0xB3 GAS PUSH5 0x736F6C6343 STOP ADDMOD GT STOP CALLER "},"methodIdentifiers":{"balance()":"b69ef8a8","connectAccount()":"f57e2a6c","deposit(uint256)":"b6b55f25","disconnectAccount()":"6245d5e6","getBalance()":"12065fe0","getNumConnectedAccounts()":"9938c349","numAccounts()":"8ce25a93","owner()":"8da5cb5b","withdraw(uint256)":"2e1a7d4d"}}}}}