{
  "_format": "hh-sol-artifact-1",
  "contractName": "Assessment",
  "sourceName": "contracts/Assessment.sol",
  "abi": [
    {
      "inputs": [
        {
          "internalType": "uint256",
          "name": "initBalance",
          "type": "uint256"
        }
      ],
      "stateMutability": "payable",
      "type": "constructor"
    },
    {
      "inputs": [
        {
          "internalType": "uint256",
          "name": "balance",
          "type": "uint256"
        },
        {
          "internalType": "uint256",
          "name": "withdrawAmount",
          "type": "uint256"
        }
      ],
      "name": "InsufficientBalance",
      "type": "error"
    },
    {
      "anonymous": false,
      "inputs": [
        {
          "indexed": false,
          "internalType": "uint256",
          "name": "amount",
          "type": "uint256"
        }
      ],
      "name": "Deposit",
      "type": "event"
    },
    {
      "anonymous": false,
      "inputs": [
        {
          "indexed": false,
          "internalType": "uint256",
          "name": "amount",
          "type": "uint256"
        }
      ],
      "name": "Withdraw",
      "type": "event"
    },
    {
      "inputs": [],
      "name": "balance",
      "outputs": [
        {
          "internalType": "uint256",
          "name": "",
          "type": "uint256"
        }
      ],
      "stateMutability": "view",
      "type": "function"
    },
    {
      "inputs": [],
      "name": "connectAccount",
      "outputs": [],
      "stateMutability": "nonpayable",
      "type": "function"
    },
    {
      "inputs": [
        {
          "internalType": "uint256",
          "name": "_amount",
          "type": "uint256"
        }
      ],
      "name": "deposit",
      "outputs": [],
      "stateMutability": "payable",
      "type": "function"
    },
    {
      "inputs": [],
      "name": "disconnectAccount",
      "outputs": [],
      "stateMutability": "nonpayable",
      "type": "function"
    },
    {
      "inputs": [],
      "name": "getBalance",
      "outputs": [
        {
          "internalType": "uint256",
          "name": "",
          "type": "uint256"
        }
      ],
      "stateMutability": "view",
      "type": "function"
    },
    {
      "inputs": [],
      "name": "getNumConnectedAccounts",
      "outputs": [
        {
          "internalType": "uint256",
          "name": "",
          "type": "uint256"
        }
      ],
      "stateMutability": "view",
      "type": "function"
    },
    {
      "inputs": [],
      "name": "numAccounts",
      "outputs": [
        {
          "internalType": "uint256",
          "name": "",
          "type": "uint256"
        }
      ],
      "stateMutability": "view",
      "type": "function"
    },
    {
      "inputs": [],
      "name": "owner",
      "outputs": [
        {
          "internalType": "address payable",
          "name": "",
          "type": "address"
        }
      ],
      "stateMutability": "view",
      "type": "function"
    },
    {
      "inputs": [
        {
          "internalType": "uint256",
          "name": "_withdrawAmount",
          "type": "uint256"
        }
      ],
      "name": "withdraw",
      "outputs": [],
      "stateMutability": "nonpayable",
      "type": "function"
    }
  ],
  "bytecode": "0x60806040526040516107b73803806107b7833981810160405281019061002591906100ad565b336000806101000a81548173ffffffffffffffffffffffffffffffffffffffff021916908373ffffffffffffffffffffffffffffffffffffffff16021790555080600181905550506100da565b600080fd5b6000819050919050565b61008a81610077565b811461009557600080fd5b50565b6000815190506100a781610081565b92915050565b6000602082840312156100c3576100c2610072565b5b60006100d184828501610098565b91505092915050565b6106ce806100e96000396000f3fe6080604052600436106100865760003560e01c80638da5cb5b116100595780638da5cb5b146101215780639938c3491461014c578063b69ef8a814610177578063b6b55f25146101a2578063f57e2a6c146101be57610086565b806312065fe01461008b5780632e1a7d4d146100b65780636245d5e6146100df5780638ce25a93146100f6575b600080fd5b34801561009757600080fd5b506100a06101d5565b6040516100ad91906103e6565b60405180910390f35b3480156100c257600080fd5b506100dd60048036038101906100d89190610432565b6101df565b005b3480156100eb57600080fd5b506100f46102a2565b005b34801561010257600080fd5b5061010b610301565b60405161011891906103e6565b60405180910390f35b34801561012d57600080fd5b50610136610307565b60405161014391906104a0565b60405180910390f35b34801561015857600080fd5b5061016161032b565b60405161016e91906103e6565b60405180910390f35b34801561018357600080fd5b5061018c610335565b60405161019991906103e6565b60405180910390f35b6101bc60048036038101906101b79190610432565b61033b565b005b3480156101ca57600080fd5b506101d36103b3565b005b6000600154905090565b6000600154905081600154101561023157600154826040517fcf4791810000000000000000000000000000000000000000000000000000000081526004016102289291906104bb565b60405180910390fd5b81600160008282546102439190610513565b9250508190555081816102569190610513565b6001541461026757610266610547565b5b7f5b6b431d4476a211bb7d41c20d1aab9ae2321deee0d20be3d9fc9b1093fa6e3d8260405161029691906103e6565b60405180910390a15050565b6000600254116102e7576040517f08c379a00000000000000000000000000000000000000000000000000000000081526004016102de906105d3565b60405180910390fd5b600260008154809291906102fa906105f3565b9190505550565b60025481565b60008054906101000a900473ffffffffffffffffffffffffffffffffffffffff1681565b6000600254905090565b60015481565b600060015490508160016000828254610354919061061c565b925050819055508181610367919061061c565b6001541461037857610377610547565b5b7f4d6ce1e535dbade1c23defba91e23b8f791ce5edc0cc320257a2b364e4e38426826040516103a791906103e6565b60405180910390a15050565b600260008154809291906103c690610650565b9190505550565b6000819050919050565b6103e0816103cd565b82525050565b60006020820190506103fb60008301846103d7565b92915050565b600080fd5b61040f816103cd565b811461041a57600080fd5b50565b60008135905061042c81610406565b92915050565b60006020828403121561044857610447610401565b5b60006104568482850161041d565b91505092915050565b600073ffffffffffffffffffffffffffffffffffffffff82169050919050565b600061048a8261045f565b9050919050565b61049a8161047f565b82525050565b60006020820190506104b56000830184610491565b92915050565b60006040820190506104d060008301856103d7565b6104dd60208301846103d7565b9392505050565b7f4e487b7100000000000000000000000000000000000000000000000000000000600052601160045260246000fd5b600061051e826103cd565b9150610529836103cd565b9250828203905081811115610541576105406104e4565b5b92915050565b7f4e487b7100000000000000000000000000000000000000000000000000000000600052600160045260246000fd5b600082825260208201905092915050565b7f4e6f206163636f756e747320746f20646973636f6e6e65637400000000000000600082015250565b60006105bd601983610576565b91506105c882610587565b602082019050919050565b600060208201905081810360008301526105ec816105b0565b9050919050565b60006105fe826103cd565b915060008203610611576106106104e4565b5b600182039050919050565b6000610627826103cd565b9150610632836103cd565b925082820190508082111561064a576106496104e4565b5b92915050565b600061065b826103cd565b91507fffffffffffffffffffffffffffffffffffffffffffffffffffffffffffffffff820361068d5761068c6104e4565b5b60018201905091905056fea26469706673582212205997838d832a970007a48e70564cadba47e4e1dc9fc8115b8d2927c37e38b35a64736f6c63430008110033",
  "linkReferences": {},
  "deployedLinkReferences": {}
}